{
  "contractName": "MSWallet",
  "abi": [
    {
      "inputs": [
        {
          "internalType": "address[]",
          "name": "_owners",
          "type": "address[]"
        },
        {
          "internalType": "uint256",
          "name": "_numConfirmationsRequired",
          "type": "uint256"
        }
      ],
      "stateMutability": "nonpayable",
      "type": "constructor"
    },
    {
      "anonymous": false,
      "inputs": [
        {
          "indexed": true,
          "internalType": "address",
          "name": "_owner",
          "type": "address"
        },
        {
          "indexed": true,
          "internalType": "uint256",
          "name": "_txIndex",
          "type": "uint256"
        }
      ],
      "name": "Confirm",
      "type": "event"
    },
    {
      "anonymous": false,
      "inputs": [
        {
          "indexed": true,
          "internalType": "address",
          "name": "_sender",
          "type": "address"
        },
        {
          "indexed": false,
          "internalType": "uint256",
          "name": "_amount",
          "type": "uint256"
        },
        {
          "indexed": false,
          "internalType": "uint256",
          "name": "_balance",
          "type": "uint256"
        }
      ],
      "name": "Deposit",
      "type": "event"
    },
    {
      "anonymous": false,
      "inputs": [
        {
          "indexed": true,
          "internalType": "address",
          "name": "_owner",
          "type": "address"
        },
        {
          "indexed": true,
          "internalType": "uint256",
          "name": "_txIndex",
          "type": "uint256"
        }
      ],
      "name": "Execute",
      "type": "event"
    },
    {
      "anonymous": false,
      "inputs": [
        {
          "indexed": true,
          "internalType": "address",
          "name": "_owner",
          "type": "address"
        },
        {
          "indexed": true,
          "internalType": "uint256",
          "name": "_txIndex",
          "type": "uint256"
        }
      ],
      "name": "Revoke",
      "type": "event"
    },
    {
      "anonymous": false,
      "inputs": [
        {
          "indexed": true,
          "internalType": "address",
          "name": "_owner",
          "type": "address"
        },
        {
          "indexed": true,
          "internalType": "uint256",
          "name": "_txIndex",
          "type": "uint256"
        },
        {
          "indexed": true,
          "internalType": "address",
          "name": "_to",
          "type": "address"
        },
        {
          "indexed": false,
          "internalType": "uint256",
          "name": "_value",
          "type": "uint256"
        },
        {
          "indexed": false,
          "internalType": "bytes",
          "name": "data",
          "type": "bytes"
        }
      ],
      "name": "Submit",
      "type": "event"
    },
    {
      "inputs": [
        {
          "internalType": "address",
          "name": "",
          "type": "address"
        }
      ],
      "name": "isOwner",
      "outputs": [
        {
          "internalType": "bool",
          "name": "",
          "type": "bool"
        }
      ],
      "stateMutability": "view",
      "type": "function",
      "constant": true
    },
    {
      "inputs": [],
      "name": "numConfirmationsRequired",
      "outputs": [
        {
          "internalType": "uint256",
          "name": "",
          "type": "uint256"
        }
      ],
      "stateMutability": "view",
      "type": "function",
      "constant": true
    },
    {
      "inputs": [
        {
          "internalType": "uint256",
          "name": "",
          "type": "uint256"
        }
      ],
      "name": "owners",
      "outputs": [
        {
          "internalType": "address",
          "name": "",
          "type": "address"
        }
      ],
      "stateMutability": "view",
      "type": "function",
      "constant": true
    },
    {
      "inputs": [
        {
          "internalType": "uint256",
          "name": "",
          "type": "uint256"
        }
      ],
      "name": "transactions",
      "outputs": [
        {
          "internalType": "address",
          "name": "to",
          "type": "address"
        },
        {
          "internalType": "uint256",
          "name": "value",
          "type": "uint256"
        },
        {
          "internalType": "bytes",
          "name": "data",
          "type": "bytes"
        },
        {
          "internalType": "bool",
          "name": "executed",
          "type": "bool"
        },
        {
          "internalType": "uint256",
          "name": "numConfirmations",
          "type": "uint256"
        }
      ],
      "stateMutability": "view",
      "type": "function",
      "constant": true
    },
    {
      "stateMutability": "payable",
      "type": "receive",
      "payable": true
    },
    {
      "inputs": [
        {
          "internalType": "address",
          "name": "_to",
          "type": "address"
        },
        {
          "internalType": "uint256",
          "name": "_value",
          "type": "uint256"
        },
        {
          "internalType": "bytes",
          "name": "_data",
          "type": "bytes"
        }
      ],
      "name": "submit",
      "outputs": [],
      "stateMutability": "nonpayable",
      "type": "function"
    },
    {
      "inputs": [
        {
          "internalType": "uint256",
          "name": "_txIndex",
          "type": "uint256"
        }
      ],
      "name": "confirm",
      "outputs": [],
      "stateMutability": "nonpayable",
      "type": "function"
    },
    {
      "inputs": [
        {
          "internalType": "uint256",
          "name": "_txIndex",
          "type": "uint256"
        }
      ],
      "name": "execute",
      "outputs": [],
      "stateMutability": "nonpayable",
      "type": "function"
    },
    {
      "inputs": [
        {
          "internalType": "uint256",
          "name": "_txIndex",
          "type": "uint256"
        }
      ],
      "name": "revoke",
      "outputs": [],
      "stateMutability": "nonpayable",
      "type": "function"
    },
    {
      "inputs": [
        {
          "internalType": "uint256",
          "name": "_txIndex",
          "type": "uint256"
        }
      ],
      "name": "getTransaction",
      "outputs": [
        {
          "internalType": "address",
          "name": "to",
          "type": "address"
        },
        {
          "internalType": "uint256",
          "name": "value",
          "type": "uint256"
        },
        {
          "internalType": "bytes",
          "name": "data",
          "type": "bytes"
        },
        {
          "internalType": "bool",
          "name": "executed",
          "type": "bool"
        },
        {
          "internalType": "uint256",
          "name": "_umConfirmations",
          "type": "uint256"
        }
      ],
      "stateMutability": "view",
      "type": "function",
      "constant": true
    }
  ],
  "bytecode": "0x60806040523480156200001157600080fd5b50604051620022ec380380620022ec833981810160405281019062000037919062000412565b60008251116200007e576040517f08c379a00000000000000000000000000000000000000000000000000000000081526004016200007590620005b7565b60405180910390fd5b60008111620000c4576040517f08c379a0000000000000000000000000000000000000000000000000000000008152600401620000bb9062000551565b60405180910390fd5b81518111156200010b576040517f08c379a0000000000000000000000000000000000000000000000000000000008152600401620001029062000573565b60405180910390fd5b60005b82518110156200033257600083828151811062000154577f4e487b7100000000000000000000000000000000000000000000000000000000600052603260045260246000fd5b60200260200101519050600073ffffffffffffffffffffffffffffffffffffffff168173ffffffffffffffffffffffffffffffffffffffff161415620001d1576040517f08c379a0000000000000000000000000000000000000000000000000000000008152600401620001c8906200052f565b60405180910390fd5b600160008273ffffffffffffffffffffffffffffffffffffffff1673ffffffffffffffffffffffffffffffffffffffff16815260200190815260200160002060009054906101000a900460ff161562000261576040517f08c379a0000000000000000000000000000000000000000000000000000000008152600401620002589062000595565b60405180910390fd5b60018060008373ffffffffffffffffffffffffffffffffffffffff1673ffffffffffffffffffffffffffffffffffffffff16815260200190815260200160002060006101000a81548160ff0219169083151502179055506000819080600181540180825580915050600190039060005260206000200160009091909190916101000a81548173ffffffffffffffffffffffffffffffffffffffff021916908373ffffffffffffffffffffffffffffffffffffffff1602179055505080806200032990620006b6565b9150506200010e565b50806002819055505050620008e6565b600062000359620003538462000602565b620005d9565b905080838252602082019050828560208602820111156200037957600080fd5b60005b85811015620003ad5781620003928882620003b7565b8452602084019350602083019250506001810190506200037c565b5050509392505050565b600081519050620003c881620008b2565b92915050565b600082601f830112620003e057600080fd5b8151620003f284826020860162000342565b91505092915050565b6000815190506200040c81620008cc565b92915050565b600080604083850312156200042657600080fd5b600083015167ffffffffffffffff8111156200044157600080fd5b6200044f85828601620003ce565b92505060206200046285828601620003fb565b9150509250929050565b60006200047b60108362000631565b9150620004888262000773565b602082019050919050565b6000620004a260358362000631565b9150620004af826200079c565b604082019050919050565b6000620004c960388362000631565b9150620004d682620007eb565b604082019050919050565b6000620004f060138362000631565b9150620004fd826200083a565b602082019050919050565b60006200051760238362000631565b9150620005248262000863565b604082019050919050565b600060208201905081810360008301526200054a816200046c565b9050919050565b600060208201905081810360008301526200056c8162000493565b9050919050565b600060208201905081810360008301526200058e81620004ba565b9050919050565b60006020820190508181036000830152620005b081620004e1565b9050919050565b60006020820190508181036000830152620005d28162000508565b9050919050565b6000620005e5620005f8565b9050620005f3828262000680565b919050565b6000604051905090565b600067ffffffffffffffff82111562000620576200061f62000733565b5b602082029050602081019050919050565b600082825260208201905092915050565b60006200064f8262000656565b9050919050565b600073ffffffffffffffffffffffffffffffffffffffff82169050919050565b6000819050919050565b6200068b8262000762565b810181811067ffffffffffffffff82111715620006ad57620006ac62000733565b5b80604052505050565b6000620006c38262000676565b91507fffffffffffffffffffffffffffffffffffffffffffffffffffffffffffffffff821415620006f957620006f862000704565b5b600182019050919050565b7f4e487b7100000000000000000000000000000000000000000000000000000000600052601160045260246000fd5b7f4e487b7100000000000000000000000000000000000000000000000000000000600052604160045260246000fd5b6000601f19601f8301169050919050565b7f4f776e657220697320696e76616c696400000000000000000000000000000000600082015250565b7f4e756d626572206f6620636f6e6669726d6174696f6e7320726571756972656460008201527f2073686f756c64206265206174206c6561737420310000000000000000000000602082015250565b7f4e756d626572206f6620636f6e6669726d6174696f6e7320726571756972656460008201527f2073686f756c64206c657373207468616e206f776e6572730000000000000000602082015250565b7f4f776e6572206973206e6f7420756e6971756500000000000000000000000000600082015250565b7f4f776e65727320636f756e74206e6565647320746f206265206174206c65617360008201527f7420310000000000000000000000000000000000000000000000000000000000602082015250565b620008bd8162000642565b8114620008c957600080fd5b50565b620008d78162000676565b8114620008e357600080fd5b50565b6119f680620008f66000396000f3fe60806040526004361061008a5760003560e01c806333ea3dc81161005957806333ea3dc8146101b25780639ace38c2146101f3578063ba0179b514610234578063d0549b851461025d578063fe0d94c114610288576100e1565b8063025e7c27146100e657806314de327f1461012357806320c5429b1461014c5780632f54bf6e14610175576100e1565b366100e1573373ffffffffffffffffffffffffffffffffffffffff167f90890809c654f11d6e72a28fa60149770a0d11ec6c92319d6ceb2bb0a4ea1a1534476040516100d7929190611595565b60405180910390a2005b600080fd5b3480156100f257600080fd5b5061010d60048036038101906101089190611203565b6102b1565b60405161011a91906113fa565b60405180910390f35b34801561012f57600080fd5b5061014a6004803603810190610145919061119c565b6102f0565b005b34801561015857600080fd5b50610173600480360381019061016e9190611203565b6104fa565b005b34801561018157600080fd5b5061019c60048036038101906101979190611173565b61077d565b6040516101a9919061146f565b60405180910390f35b3480156101be57600080fd5b506101d960048036038101906101d49190611203565b61079d565b6040516101ea959493929190611415565b60405180910390f35b3480156101ff57600080fd5b5061021a60048036038101906102159190611203565b6108d6565b60405161022b959493929190611415565b60405180910390f35b34801561024057600080fd5b5061025b60048036038101906102569190611203565b6109d1565b005b34801561026957600080fd5b50610272610cf4565b60405161027f919061154a565b60405180910390f35b34801561029457600080fd5b506102af60048036038101906102aa9190611203565b610cfa565b005b600081815481106102c157600080fd5b906000526020600020016000915054906101000a900473ffffffffffffffffffffffffffffffffffffffff1681565b600160003373ffffffffffffffffffffffffffffffffffffffff1673ffffffffffffffffffffffffffffffffffffffff16815260200190815260200160002060009054906101000a900460ff1661037c576040517f08c379a0000000000000000000000000000000000000000000000000000000008152600401610373906114ca565b60405180910390fd5b6000600480549050905060046040518060a001604052808673ffffffffffffffffffffffffffffffffffffffff1681526020018581526020018481526020016000151581526020016000815250908060018154018082558091505060019003906000526020600020906005020160009091909190915060008201518160000160006101000a81548173ffffffffffffffffffffffffffffffffffffffff021916908373ffffffffffffffffffffffffffffffffffffffff16021790555060208201518160010155604082015181600201908051906020019061045f92919061103e565b5060608201518160030160006101000a81548160ff0219169083151502179055506080820151816004015550508373ffffffffffffffffffffffffffffffffffffffff16813373ffffffffffffffffffffffffffffffffffffffff167fae88b418f2b5e7c7e4a839d4244a762f0552c731cb27e637651304317491b10786866040516104ec929190611565565b60405180910390a450505050565b600160003373ffffffffffffffffffffffffffffffffffffffff1673ffffffffffffffffffffffffffffffffffffffff16815260200190815260200160002060009054906101000a900460ff16610586576040517f08c379a000000000000000000000000000000000000000000000000000000000815260040161057d906114ca565b60405180910390fd5b8060048054905081106105ce576040517f08c379a00000000000000000000000000000000000000000000000000000000081526004016105c59061150a565b60405180910390fd5b8160048181548110610609577f4e487b7100000000000000000000000000000000000000000000000000000000600052603260045260246000fd5b906000526020600020906005020160030160009054906101000a900460ff1615610668576040517f08c379a000000000000000000000000000000000000000000000000000000000815260040161065f9061152a565b60405180910390fd5b60006003600085815260200190815260200160002060003373ffffffffffffffffffffffffffffffffffffffff1673ffffffffffffffffffffffffffffffffffffffff16815260200190815260200160002060006101000a81548160ff02191690831515021790555060016004848154811061070d577f4e487b7100000000000000000000000000000000000000000000000000000000600052603260045260246000fd5b9060005260206000209060050201600401600082825461072d91906116b7565b92505081905550823373ffffffffffffffffffffffffffffffffffffffff167fec9ab91322523c899ede7830ec9bfc992b5981cdcc27b91162fb23de5791117b60405160405180910390a3505050565b60016020528060005260406000206000915054906101000a900460ff1681565b60008060606000806000600487815481106107e1577f4e487b7100000000000000000000000000000000000000000000000000000000600052603260045260246000fd5b906000526020600020906005020190508060000160009054906101000a900473ffffffffffffffffffffffffffffffffffffffff168160010154826002018360030160009054906101000a900460ff16846004015482805461084290611775565b80601f016020809104026020016040519081016040528092919081815260200182805461086e90611775565b80156108bb5780601f10610890576101008083540402835291602001916108bb565b820191906000526020600020905b81548152906001019060200180831161089e57829003601f168201915b50505050509250955095509550955095505091939590929450565b600481815481106108e657600080fd5b90600052602060002090600502016000915090508060000160009054906101000a900473ffffffffffffffffffffffffffffffffffffffff169080600101549080600201805461093590611775565b80601f016020809104026020016040519081016040528092919081815260200182805461096190611775565b80156109ae5780601f10610983576101008083540402835291602001916109ae565b820191906000526020600020905b81548152906001019060200180831161099157829003601f168201915b5050505050908060030160009054906101000a900460ff16908060040154905085565b600160003373ffffffffffffffffffffffffffffffffffffffff1673ffffffffffffffffffffffffffffffffffffffff16815260200190815260200160002060009054906101000a900460ff16610a5d576040517f08c379a0000000000000000000000000000000000000000000000000000000008152600401610a54906114ca565b60405180910390fd5b806004805490508110610aa5576040517f08c379a0000000000000000000000000000000000000000000000000000000008152600401610a9c9061150a565b60405180910390fd5b8160048181548110610ae0577f4e487b7100000000000000000000000000000000000000000000000000000000600052603260045260246000fd5b906000526020600020906005020160030160009054906101000a900460ff1615610b3f576040517f08c379a0000000000000000000000000000000000000000000000000000000008152600401610b369061152a565b60405180910390fd5b826003600082815260200190815260200160002060003373ffffffffffffffffffffffffffffffffffffffff1673ffffffffffffffffffffffffffffffffffffffff16815260200190815260200160002060009054906101000a900460ff1615610bde576040517f08c379a0000000000000000000000000000000000000000000000000000000008152600401610bd5906114ea565b60405180910390fd5b60016003600086815260200190815260200160002060003373ffffffffffffffffffffffffffffffffffffffff1673ffffffffffffffffffffffffffffffffffffffff16815260200190815260200160002060006101000a81548160ff021916908315150217905550600160048581548110610c83577f4e487b7100000000000000000000000000000000000000000000000000000000600052603260045260246000fd5b90600052602060002090600502016004016000828254610ca39190611661565b92505081905550833373ffffffffffffffffffffffffffffffffffffffff167fbde73c39e691e6143456e01935275fd9f654dacca25911f03ab0d587644377eb60405160405180910390a350505050565b60025481565b600160003373ffffffffffffffffffffffffffffffffffffffff1673ffffffffffffffffffffffffffffffffffffffff16815260200190815260200160002060009054906101000a900460ff16610d86576040517f08c379a0000000000000000000000000000000000000000000000000000000008152600401610d7d906114ca565b60405180910390fd5b806004805490508110610dce576040517f08c379a0000000000000000000000000000000000000000000000000000000008152600401610dc59061150a565b60405180910390fd5b8160048181548110610e09577f4e487b7100000000000000000000000000000000000000000000000000000000600052603260045260246000fd5b906000526020600020906005020160030160009054906101000a900460ff1615610e68576040517f08c379a0000000000000000000000000000000000000000000000000000000008152600401610e5f9061152a565b60405180910390fd5b600060048481548110610ea4577f4e487b7100000000000000000000000000000000000000000000000000000000600052603260045260246000fd5b9060005260206000209060050201905060025481600401541015610efd576040517f08c379a0000000000000000000000000000000000000000000000000000000008152600401610ef49061148a565b60405180910390fd5b60018160030160006101000a81548160ff02191690831515021790555060008160000160009054906101000a900473ffffffffffffffffffffffffffffffffffffffff1673ffffffffffffffffffffffffffffffffffffffff16826001015483600201604051610f6d91906113e3565b60006040518083038185875af1925050503d8060008114610faa576040519150601f19603f3d011682016040523d82523d6000602084013e610faf565b606091505b5050905080610ff3576040517f08c379a0000000000000000000000000000000000000000000000000000000008152600401610fea906114aa565b60405180910390fd5b843373ffffffffffffffffffffffffffffffffffffffff167f892cd8f5b436bd5fb7dac1f11aafb73345d892ba3e9fe09cd94d95ba84928e7360405160405180910390a35050505050565b82805461104a90611775565b90600052602060002090601f01602090048101928261106c57600085556110b3565b82601f1061108557805160ff19168380011785556110b3565b828001600101855582156110b3579182015b828111156110b2578251825591602001919060010190611097565b5b5090506110c091906110c4565b5090565b5b808211156110dd5760008160009055506001016110c5565b5090565b60006110f46110ef846115e3565b6115be565b90508281526020810184848401111561110c57600080fd5b611117848285611733565b509392505050565b60008135905061112e81611992565b92915050565b600082601f83011261114557600080fd5b81356111558482602086016110e1565b91505092915050565b60008135905061116d816119a9565b92915050565b60006020828403121561118557600080fd5b60006111938482850161111f565b91505092915050565b6000806000606084860312156111b157600080fd5b60006111bf8682870161111f565b93505060206111d08682870161115e565b925050604084013567ffffffffffffffff8111156111ed57600080fd5b6111f986828701611134565b9150509250925092565b60006020828403121561121557600080fd5b60006112238482850161115e565b91505092915050565b611235816116eb565b82525050565b611244816116fd565b82525050565b600061125582611629565b61125f8185611634565b935061126f818560208601611742565b61127881611865565b840191505092915050565b6000815461129081611775565b61129a8186611645565b945060018216600081146112b557600181146112c6576112f9565b60ff198316865281860193506112f9565b6112cf85611614565b60005b838110156112f1578154818901526001820191506020810190506112d2565b838801955050505b50505092915050565b600061130f602583611650565b915061131a82611876565b604082019050919050565b6000611332601883611650565b915061133d826118c5565b602082019050919050565b6000611355601483611650565b9150611360826118ee565b602082019050919050565b6000611378602083611650565b915061138382611917565b602082019050919050565b600061139b601a83611650565b91506113a682611940565b602082019050919050565b60006113be601f83611650565b91506113c982611969565b602082019050919050565b6113dd81611729565b82525050565b60006113ef8284611283565b915081905092915050565b600060208201905061140f600083018461122c565b92915050565b600060a08201905061142a600083018861122c565b61143760208301876113d4565b8181036040830152611449818661124a565b9050611458606083018561123b565b61146560808301846113d4565b9695505050505050565b6000602082019050611484600083018461123b565b92915050565b600060208201905081810360008301526114a381611302565b9050919050565b600060208201905081810360008301526114c381611325565b9050919050565b600060208201905081810360008301526114e381611348565b9050919050565b600060208201905081810360008301526115038161136b565b9050919050565b600060208201905081810360008301526115238161138e565b9050919050565b60006020820190508181036000830152611543816113b1565b9050919050565b600060208201905061155f60008301846113d4565b92915050565b600060408201905061157a60008301856113d4565b818103602083015261158c818461124a565b90509392505050565b60006040820190506115aa60008301856113d4565b6115b760208301846113d4565b9392505050565b60006115c86115d9565b90506115d482826117a7565b919050565b6000604051905090565b600067ffffffffffffffff8211156115fe576115fd611836565b5b61160782611865565b9050602081019050919050565b60008190508160005260206000209050919050565b600081519050919050565b600082825260208201905092915050565b600081905092915050565b600082825260208201905092915050565b600061166c82611729565b915061167783611729565b9250827fffffffffffffffffffffffffffffffffffffffffffffffffffffffffffffffff038211156116ac576116ab6117d8565b5b828201905092915050565b60006116c282611729565b91506116cd83611729565b9250828210156116e0576116df6117d8565b5b828203905092915050565b60006116f682611709565b9050919050565b60008115159050919050565b600073ffffffffffffffffffffffffffffffffffffffff82169050919050565b6000819050919050565b82818337600083830152505050565b60005b83811015611760578082015181840152602081019050611745565b8381111561176f576000848401525b50505050565b6000600282049050600182168061178d57607f821691505b602082108114156117a1576117a0611807565b5b50919050565b6117b082611865565b810181811067ffffffffffffffff821117156117cf576117ce611836565b5b80604052505050565b7f4e487b7100000000000000000000000000000000000000000000000000000000600052601160045260246000fd5b7f4e487b7100000000000000000000000000000000000000000000000000000000600052602260045260246000fd5b7f4e487b7100000000000000000000000000000000000000000000000000000000600052604160045260246000fd5b6000601f19601f8301169050919050565b7f4e756d20636f6e6669726d6174696f6e73207265717569726564206973206e6f60008201527f74206d6574000000000000000000000000000000000000000000000000000000602082015250565b7f4661696c656420746f207472616e736665722066756e64730000000000000000600082015250565b7f596f7520617265206e6f7420616e206f776e6572000000000000000000000000600082015250565b7f5472616e73616374696f6e20697320616c726561647920636f6e6669726d6564600082015250565b7f5472616e73616374696f6e20646f6573206e6f74206578697374000000000000600082015250565b7f5472616e73616374696f6e20697320616c726561647920657865637574656400600082015250565b61199b816116eb565b81146119a657600080fd5b50565b6119b281611729565b81146119bd57600080fd5b5056fea2646970667358221220bc2c882ebaaac98b7cb8f9808bdc0ca6e5271a7dadd6deac2a5b684793752c3564736f6c63430008040033",
  "immutableReferences": {},
  "source": "pragma solidity ^0.8.4;\n\ncontract MSWallet {\n    event Deposit(address indexed _sender,uint _amount, uint _balance);\n    event Submit (\n        address indexed _owner,\n        uint indexed _txIndex,\n        address indexed _to,\n        uint _value,\n        bytes data\n    );\n    event Confirm(address indexed _owner, uint indexed _txIndex);\n    event Revoke(address indexed _owner, uint indexed _txIndex);\n    event Execute(address indexed _owner, uint indexed _txIndex);\n\n    address[] public owners;\n    mapping(address => bool) public isOwner;\n    uint public numConfirmationsRequired;\n\n    struct Transaction {\n        address to;\n        uint value;\n        bytes data;\n        bool executed;\n        uint numConfirmations;\n    }\n\n    mapping(uint => mapping(address => bool)) isConfirmed;\n\n    Transaction[] public transactions;\n\n    constructor (address[] memory _owners, uint _numConfirmationsRequired) {\n        require(_owners.length > 0, 'Owners count needs to be at least 1');\n        require(_numConfirmationsRequired > 0, 'Number of confirmations required should be at least 1');\n        require(_numConfirmationsRequired <= _owners.length, 'Number of confirmations required should less than owners');\n\n        for (uint i = 0; i < _owners.length; i++) {\n            address owner = _owners[i];\n            require(owner != address(0), 'Owner is invalid');\n            require(!isOwner[owner], 'Owner is not unique');\n\n            isOwner[owner] = true;\n            owners.push(owner);\n        }\n\n        numConfirmationsRequired = _numConfirmationsRequired;\n    }\n\n    receive () external payable {\n        emit Deposit(msg.sender, msg.value, address(this).balance);\n    }\n\n    modifier onlyOwner() {\n        require(isOwner[msg.sender], \"You are not an owner\");\n        _;\n    }\n\n    modifier txExists(uint _txIndex) {\n        require(_txIndex < transactions.length, \"Transaction does not exist\");\n        _;\n    }\n\n    modifier notExecuted(uint _txIndex) {\n        require(!transactions[_txIndex].executed, \"Transaction is already executed\");\n        _;\n    }\n\n        modifier notConfirmed(uint _txIndex) {\n        require(!isConfirmed[_txIndex][msg.sender], \"Transaction is already confirmed\");\n        _;\n    }\n\n    function submit(address _to, uint _value, bytes memory _data) public onlyOwner {\n        uint txIndex = transactions.length;\n\n        transactions.push(Transaction({\n            to: _to,\n            value: _value,\n            data: _data,\n            executed: false,\n            numConfirmations: 0\n        }));\n    \n        emit Submit(msg.sender, txIndex, _to, _value, _data);\n    }\n\n    function confirm(uint _txIndex) public onlyOwner txExists(_txIndex) notExecuted(_txIndex) notConfirmed(_txIndex){\n\n        isConfirmed[_txIndex][msg.sender] = true;\n        transactions[_txIndex].numConfirmations += 1;\n\n        emit Confirm(msg.sender, _txIndex);\n    }\n\n    function execute(uint _txIndex) public onlyOwner txExists(_txIndex) notExecuted(_txIndex) {\n        Transaction storage transaction = transactions[_txIndex];\n        \n        require(transaction.numConfirmations >= numConfirmationsRequired, \"Num confirmations required is not met\");\n\n        transaction.executed = true;\n        (bool success, ) = transaction.to.call{value: transaction.value}(transaction.data);\n\n        require(success, \"Failed to transfer funds\");\n\n        emit Execute(msg.sender, _txIndex);\n\n    }\n\n    function revoke(uint _txIndex) public onlyOwner txExists(_txIndex) notExecuted(_txIndex) {\n        isConfirmed[_txIndex][msg.sender] = false;\n        transactions[_txIndex].numConfirmations -= 1;\n\n        emit Revoke(msg.sender, _txIndex);\n\n    }\n    function getTransaction(uint _txIndex)\n        public\n        view\n        returns (address to, uint value, bytes memory data, bool executed, uint _umConfirmations)\n    {\n        Transaction storage transaction = transactions[_txIndex];\n\n        return (\n            transaction.to,\n            transaction.value,\n            transaction.data,\n            transaction.executed,\n            transaction.numConfirmations\n        );\n    }\n}",
  "sourcePath": "/Users/mertozgun/dev/m2ozgun/multisigwallet/contracts/MSWallet.sol",
  "compiler": {
    "name": "solc",
    "version": "0.8.4+commit.c7e474f2.Emscripten.clang"
  },
  "schemaVersion": "3.4.0",
  "updatedAt": "2021-05-08T05:43:34.844Z",
  "networkType": "ethereum",
  "devdoc": {
    "kind": "dev",
    "methods": {},
    "version": 1
  },
  "userdoc": {
    "kind": "user",
    "methods": {},
    "version": 1
  }
}