{
  "contractName": "MSWallet",
  "abi": [
    {
      "inputs": [
        {
          "internalType": "address[]",
          "name": "_owners",
          "type": "address[]"
        },
        {
          "internalType": "uint256",
          "name": "_numConfirmationsRequired",
          "type": "uint256"
        }
      ],
      "stateMutability": "nonpayable",
      "type": "constructor"
    },
    {
      "anonymous": false,
      "inputs": [
        {
          "indexed": true,
          "internalType": "address",
          "name": "_owner",
          "type": "address"
        },
        {
          "indexed": true,
          "internalType": "uint256",
          "name": "_txIndex",
          "type": "uint256"
        }
      ],
      "name": "Confirm",
      "type": "event"
    },
    {
      "anonymous": false,
      "inputs": [
        {
          "indexed": true,
          "internalType": "address",
          "name": "_sender",
          "type": "address"
        },
        {
          "indexed": false,
          "internalType": "uint256",
          "name": "_amount",
          "type": "uint256"
        },
        {
          "indexed": false,
          "internalType": "uint256",
          "name": "_balance",
          "type": "uint256"
        }
      ],
      "name": "Deposit",
      "type": "event"
    },
    {
      "anonymous": false,
      "inputs": [
        {
          "indexed": true,
          "internalType": "address",
          "name": "_owner",
          "type": "address"
        },
        {
          "indexed": true,
          "internalType": "uint256",
          "name": "_txIndex",
          "type": "uint256"
        }
      ],
      "name": "Execute",
      "type": "event"
    },
    {
      "anonymous": false,
      "inputs": [
        {
          "indexed": true,
          "internalType": "address",
          "name": "_owner",
          "type": "address"
        },
        {
          "indexed": true,
          "internalType": "uint256",
          "name": "_txIndex",
          "type": "uint256"
        }
      ],
      "name": "Revoke",
      "type": "event"
    },
    {
      "anonymous": false,
      "inputs": [
        {
          "indexed": true,
          "internalType": "address",
          "name": "_owner",
          "type": "address"
        },
        {
          "indexed": true,
          "internalType": "uint256",
          "name": "_txIndex",
          "type": "uint256"
        },
        {
          "indexed": true,
          "internalType": "address",
          "name": "_to",
          "type": "address"
        },
        {
          "indexed": false,
          "internalType": "uint256",
          "name": "_value",
          "type": "uint256"
        },
        {
          "indexed": false,
          "internalType": "bytes",
          "name": "data",
          "type": "bytes"
        }
      ],
      "name": "Submit",
      "type": "event"
    },
    {
      "inputs": [
        {
          "internalType": "uint256",
          "name": "",
          "type": "uint256"
        },
        {
          "internalType": "address",
          "name": "",
          "type": "address"
        }
      ],
      "name": "isConfirmed",
      "outputs": [
        {
          "internalType": "bool",
          "name": "",
          "type": "bool"
        }
      ],
      "stateMutability": "view",
      "type": "function",
      "constant": true
    },
    {
      "inputs": [
        {
          "internalType": "address",
          "name": "",
          "type": "address"
        }
      ],
      "name": "isOwner",
      "outputs": [
        {
          "internalType": "bool",
          "name": "",
          "type": "bool"
        }
      ],
      "stateMutability": "view",
      "type": "function",
      "constant": true
    },
    {
      "inputs": [],
      "name": "numConfirmationsRequired",
      "outputs": [
        {
          "internalType": "uint256",
          "name": "",
          "type": "uint256"
        }
      ],
      "stateMutability": "view",
      "type": "function",
      "constant": true
    },
    {
      "inputs": [
        {
          "internalType": "uint256",
          "name": "",
          "type": "uint256"
        }
      ],
      "name": "owners",
      "outputs": [
        {
          "internalType": "address",
          "name": "",
          "type": "address"
        }
      ],
      "stateMutability": "view",
      "type": "function",
      "constant": true
    },
    {
      "inputs": [
        {
          "internalType": "uint256",
          "name": "",
          "type": "uint256"
        }
      ],
      "name": "transactions",
      "outputs": [
        {
          "internalType": "address",
          "name": "to",
          "type": "address"
        },
        {
          "internalType": "uint256",
          "name": "value",
          "type": "uint256"
        },
        {
          "internalType": "bytes",
          "name": "data",
          "type": "bytes"
        },
        {
          "internalType": "bool",
          "name": "executed",
          "type": "bool"
        },
        {
          "internalType": "uint256",
          "name": "numConfirmations",
          "type": "uint256"
        }
      ],
      "stateMutability": "view",
      "type": "function",
      "constant": true
    },
    {
      "stateMutability": "payable",
      "type": "receive",
      "payable": true
    },
    {
      "inputs": [
        {
          "internalType": "address",
          "name": "_to",
          "type": "address"
        },
        {
          "internalType": "uint256",
          "name": "_value",
          "type": "uint256"
        },
        {
          "internalType": "bytes",
          "name": "_data",
          "type": "bytes"
        }
      ],
      "name": "submit",
      "outputs": [],
      "stateMutability": "nonpayable",
      "type": "function"
    },
    {
      "inputs": [
        {
          "internalType": "uint256",
          "name": "_txIndex",
          "type": "uint256"
        }
      ],
      "name": "confirm",
      "outputs": [],
      "stateMutability": "nonpayable",
      "type": "function"
    },
    {
      "inputs": [
        {
          "internalType": "uint256",
          "name": "_txIndex",
          "type": "uint256"
        }
      ],
      "name": "execute",
      "outputs": [],
      "stateMutability": "nonpayable",
      "type": "function"
    },
    {
      "inputs": [
        {
          "internalType": "uint256",
          "name": "_txIndex",
          "type": "uint256"
        }
      ],
      "name": "revoke",
      "outputs": [],
      "stateMutability": "nonpayable",
      "type": "function"
    },
    {
      "inputs": [],
      "name": "getOwners",
      "outputs": [
        {
          "internalType": "address[]",
          "name": "",
          "type": "address[]"
        }
      ],
      "stateMutability": "view",
      "type": "function",
      "constant": true
    },
    {
      "inputs": [],
      "name": "getTransactionCount",
      "outputs": [
        {
          "internalType": "uint256",
          "name": "",
          "type": "uint256"
        }
      ],
      "stateMutability": "view",
      "type": "function",
      "constant": true
    },
    {
      "inputs": [
        {
          "internalType": "uint256",
          "name": "_txIndex",
          "type": "uint256"
        }
      ],
      "name": "getTransaction",
      "outputs": [
        {
          "internalType": "address",
          "name": "to",
          "type": "address"
        },
        {
          "internalType": "uint256",
          "name": "value",
          "type": "uint256"
        },
        {
          "internalType": "bytes",
          "name": "data",
          "type": "bytes"
        },
        {
          "internalType": "bool",
          "name": "executed",
          "type": "bool"
        },
        {
          "internalType": "uint256",
          "name": "numConfirmations",
          "type": "uint256"
        }
      ],
      "stateMutability": "view",
      "type": "function",
      "constant": true
    }
  ],
  "bytecode": "0x60806040523480156200001157600080fd5b506040516200258638038062002586833981810160405281019062000037919062000412565b60008251116200007e576040517f08c379a00000000000000000000000000000000000000000000000000000000081526004016200007590620005b7565b60405180910390fd5b60008111620000c4576040517f08c379a0000000000000000000000000000000000000000000000000000000008152600401620000bb9062000551565b60405180910390fd5b81518111156200010b576040517f08c379a0000000000000000000000000000000000000000000000000000000008152600401620001029062000573565b60405180910390fd5b60005b82518110156200033257600083828151811062000154577f4e487b7100000000000000000000000000000000000000000000000000000000600052603260045260246000fd5b60200260200101519050600073ffffffffffffffffffffffffffffffffffffffff168173ffffffffffffffffffffffffffffffffffffffff161415620001d1576040517f08c379a0000000000000000000000000000000000000000000000000000000008152600401620001c8906200052f565b60405180910390fd5b600160008273ffffffffffffffffffffffffffffffffffffffff1673ffffffffffffffffffffffffffffffffffffffff16815260200190815260200160002060009054906101000a900460ff161562000261576040517f08c379a0000000000000000000000000000000000000000000000000000000008152600401620002589062000595565b60405180910390fd5b60018060008373ffffffffffffffffffffffffffffffffffffffff1673ffffffffffffffffffffffffffffffffffffffff16815260200190815260200160002060006101000a81548160ff0219169083151502179055506000819080600181540180825580915050600190039060005260206000200160009091909190916101000a81548173ffffffffffffffffffffffffffffffffffffffff021916908373ffffffffffffffffffffffffffffffffffffffff1602179055505080806200032990620006b6565b9150506200010e565b50806002819055505050620008e6565b600062000359620003538462000602565b620005d9565b905080838252602082019050828560208602820111156200037957600080fd5b60005b85811015620003ad5781620003928882620003b7565b8452602084019350602083019250506001810190506200037c565b5050509392505050565b600081519050620003c881620008b2565b92915050565b600082601f830112620003e057600080fd5b8151620003f284826020860162000342565b91505092915050565b6000815190506200040c81620008cc565b92915050565b600080604083850312156200042657600080fd5b600083015167ffffffffffffffff8111156200044157600080fd5b6200044f85828601620003ce565b92505060206200046285828601620003fb565b9150509250929050565b60006200047b60108362000631565b9150620004888262000773565b602082019050919050565b6000620004a260358362000631565b9150620004af826200079c565b604082019050919050565b6000620004c960388362000631565b9150620004d682620007eb565b604082019050919050565b6000620004f060138362000631565b9150620004fd826200083a565b602082019050919050565b60006200051760238362000631565b9150620005248262000863565b604082019050919050565b600060208201905081810360008301526200054a816200046c565b9050919050565b600060208201905081810360008301526200056c8162000493565b9050919050565b600060208201905081810360008301526200058e81620004ba565b9050919050565b60006020820190508181036000830152620005b081620004e1565b9050919050565b60006020820190508181036000830152620005d28162000508565b9050919050565b6000620005e5620005f8565b9050620005f3828262000680565b919050565b6000604051905090565b600067ffffffffffffffff82111562000620576200061f62000733565b5b602082029050602081019050919050565b600082825260208201905092915050565b60006200064f8262000656565b9050919050565b600073ffffffffffffffffffffffffffffffffffffffff82169050919050565b6000819050919050565b6200068b8262000762565b810181811067ffffffffffffffff82111715620006ad57620006ac62000733565b5b80604052505050565b6000620006c38262000676565b91507fffffffffffffffffffffffffffffffffffffffffffffffffffffffffffffffff821415620006f957620006f862000704565b5b600182019050919050565b7f4e487b7100000000000000000000000000000000000000000000000000000000600052601160045260246000fd5b7f4e487b7100000000000000000000000000000000000000000000000000000000600052604160045260246000fd5b6000601f19601f8301169050919050565b7f4f776e657220697320696e76616c696400000000000000000000000000000000600082015250565b7f4e756d626572206f6620636f6e6669726d6174696f6e7320726571756972656460008201527f2073686f756c64206265206174206c6561737420310000000000000000000000602082015250565b7f4e756d626572206f6620636f6e6669726d6174696f6e7320726571756972656460008201527f2073686f756c64206c657373207468616e206f776e6572730000000000000000602082015250565b7f4f776e6572206973206e6f7420756e6971756500000000000000000000000000600082015250565b7f4f776e65727320636f756e74206e6565647320746f206265206174206c65617360008201527f7420310000000000000000000000000000000000000000000000000000000000602082015250565b620008bd8162000642565b8114620008c957600080fd5b50565b620008d78162000676565b8114620008e357600080fd5b50565b611c9080620008f66000396000f3fe6080604052600436106100ab5760003560e01c806380f59a651161006457806380f59a651461023f5780639ace38c21461027c578063a0e67e2b146102bd578063ba0179b5146102e8578063d0549b8514610311578063fe0d94c11461033c57610102565b8063025e7c271461010757806314de327f1461014457806320c5429b1461016d5780632e7700f0146101965780632f54bf6e146101c157806333ea3dc8146101fe57610102565b36610102573373ffffffffffffffffffffffffffffffffffffffff167f90890809c654f11d6e72a28fa60149770a0d11ec6c92319d6ceb2bb0a4ea1a1534476040516100f89291906117f6565b60405180910390a2005b600080fd5b34801561011357600080fd5b5061012e60048036038101906101299190611381565b610365565b60405161013b9190611639565b60405180910390f35b34801561015057600080fd5b5061016b6004803603810190610166919061131a565b6103a4565b005b34801561017957600080fd5b50610194600480360381019061018f9190611381565b6105ae565b005b3480156101a257600080fd5b506101ab610831565b6040516101b891906117ab565b60405180910390f35b3480156101cd57600080fd5b506101e860048036038101906101e391906112f1565b61083e565b6040516101f591906116d0565b60405180910390f35b34801561020a57600080fd5b5061022560048036038101906102209190611381565b61085e565b604051610236959493929190611654565b60405180910390f35b34801561024b57600080fd5b50610266600480360381019061026191906113aa565b610997565b60405161027391906116d0565b60405180910390f35b34801561028857600080fd5b506102a3600480360381019061029e9190611381565b6109c6565b6040516102b4959493929190611654565b60405180910390f35b3480156102c957600080fd5b506102d2610ac1565b6040516102df91906116ae565b60405180910390f35b3480156102f457600080fd5b5061030f600480360381019061030a9190611381565b610b4f565b005b34801561031d57600080fd5b50610326610e72565b60405161033391906117ab565b60405180910390f35b34801561034857600080fd5b50610363600480360381019061035e9190611381565b610e78565b005b6000818154811061037557600080fd5b906000526020600020016000915054906101000a900473ffffffffffffffffffffffffffffffffffffffff1681565b600160003373ffffffffffffffffffffffffffffffffffffffff1673ffffffffffffffffffffffffffffffffffffffff16815260200190815260200160002060009054906101000a900460ff16610430576040517f08c379a00000000000000000000000000000000000000000000000000000000081526004016104279061172b565b60405180910390fd5b6000600480549050905060046040518060a001604052808673ffffffffffffffffffffffffffffffffffffffff1681526020018581526020018481526020016000151581526020016000815250908060018154018082558091505060019003906000526020600020906005020160009091909190915060008201518160000160006101000a81548173ffffffffffffffffffffffffffffffffffffffff021916908373ffffffffffffffffffffffffffffffffffffffff1602179055506020820151816001015560408201518160020190805190602001906105139291906111bc565b5060608201518160030160006101000a81548160ff0219169083151502179055506080820151816004015550508373ffffffffffffffffffffffffffffffffffffffff16813373ffffffffffffffffffffffffffffffffffffffff167fae88b418f2b5e7c7e4a839d4244a762f0552c731cb27e637651304317491b10786866040516105a09291906117c6565b60405180910390a450505050565b600160003373ffffffffffffffffffffffffffffffffffffffff1673ffffffffffffffffffffffffffffffffffffffff16815260200190815260200160002060009054906101000a900460ff1661063a576040517f08c379a00000000000000000000000000000000000000000000000000000000081526004016106319061172b565b60405180910390fd5b806004805490508110610682576040517f08c379a00000000000000000000000000000000000000000000000000000000081526004016106799061176b565b60405180910390fd5b81600481815481106106bd577f4e487b7100000000000000000000000000000000000000000000000000000000600052603260045260246000fd5b906000526020600020906005020160030160009054906101000a900460ff161561071c576040517f08c379a00000000000000000000000000000000000000000000000000000000081526004016107139061178b565b60405180910390fd5b60006003600085815260200190815260200160002060003373ffffffffffffffffffffffffffffffffffffffff1673ffffffffffffffffffffffffffffffffffffffff16815260200190815260200160002060006101000a81548160ff0219169083151502179055506001600484815481106107c1577f4e487b7100000000000000000000000000000000000000000000000000000000600052603260045260246000fd5b906000526020600020906005020160040160008282546107e19190611951565b92505081905550823373ffffffffffffffffffffffffffffffffffffffff167fec9ab91322523c899ede7830ec9bfc992b5981cdcc27b91162fb23de5791117b60405160405180910390a3505050565b6000600480549050905090565b60016020528060005260406000206000915054906101000a900460ff1681565b60008060606000806000600487815481106108a2577f4e487b7100000000000000000000000000000000000000000000000000000000600052603260045260246000fd5b906000526020600020906005020190508060000160009054906101000a900473ffffffffffffffffffffffffffffffffffffffff168160010154826002018360030160009054906101000a900460ff16846004015482805461090390611a0f565b80601f016020809104026020016040519081016040528092919081815260200182805461092f90611a0f565b801561097c5780601f106109515761010080835404028352916020019161097c565b820191906000526020600020905b81548152906001019060200180831161095f57829003601f168201915b50505050509250955095509550955095505091939590929450565b60036020528160005260406000206020528060005260406000206000915091509054906101000a900460ff1681565b600481815481106109d657600080fd5b90600052602060002090600502016000915090508060000160009054906101000a900473ffffffffffffffffffffffffffffffffffffffff1690806001015490806002018054610a2590611a0f565b80601f0160208091040260200160405190810160405280929190818152602001828054610a5190611a0f565b8015610a9e5780601f10610a7357610100808354040283529160200191610a9e565b820191906000526020600020905b815481529060010190602001808311610a8157829003601f168201915b5050505050908060030160009054906101000a900460ff16908060040154905085565b60606000805480602002602001604051908101604052809291908181526020018280548015610b4557602002820191906000526020600020905b8160009054906101000a900473ffffffffffffffffffffffffffffffffffffffff1673ffffffffffffffffffffffffffffffffffffffff1681526020019060010190808311610afb575b5050505050905090565b600160003373ffffffffffffffffffffffffffffffffffffffff1673ffffffffffffffffffffffffffffffffffffffff16815260200190815260200160002060009054906101000a900460ff16610bdb576040517f08c379a0000000000000000000000000000000000000000000000000000000008152600401610bd29061172b565b60405180910390fd5b806004805490508110610c23576040517f08c379a0000000000000000000000000000000000000000000000000000000008152600401610c1a9061176b565b60405180910390fd5b8160048181548110610c5e577f4e487b7100000000000000000000000000000000000000000000000000000000600052603260045260246000fd5b906000526020600020906005020160030160009054906101000a900460ff1615610cbd576040517f08c379a0000000000000000000000000000000000000000000000000000000008152600401610cb49061178b565b60405180910390fd5b826003600082815260200190815260200160002060003373ffffffffffffffffffffffffffffffffffffffff1673ffffffffffffffffffffffffffffffffffffffff16815260200190815260200160002060009054906101000a900460ff1615610d5c576040517f08c379a0000000000000000000000000000000000000000000000000000000008152600401610d539061174b565b60405180910390fd5b60016003600086815260200190815260200160002060003373ffffffffffffffffffffffffffffffffffffffff1673ffffffffffffffffffffffffffffffffffffffff16815260200190815260200160002060006101000a81548160ff021916908315150217905550600160048581548110610e01577f4e487b7100000000000000000000000000000000000000000000000000000000600052603260045260246000fd5b90600052602060002090600502016004016000828254610e2191906118fb565b92505081905550833373ffffffffffffffffffffffffffffffffffffffff167fbde73c39e691e6143456e01935275fd9f654dacca25911f03ab0d587644377eb60405160405180910390a350505050565b60025481565b600160003373ffffffffffffffffffffffffffffffffffffffff1673ffffffffffffffffffffffffffffffffffffffff16815260200190815260200160002060009054906101000a900460ff16610f04576040517f08c379a0000000000000000000000000000000000000000000000000000000008152600401610efb9061172b565b60405180910390fd5b806004805490508110610f4c576040517f08c379a0000000000000000000000000000000000000000000000000000000008152600401610f439061176b565b60405180910390fd5b8160048181548110610f87577f4e487b7100000000000000000000000000000000000000000000000000000000600052603260045260246000fd5b906000526020600020906005020160030160009054906101000a900460ff1615610fe6576040517f08c379a0000000000000000000000000000000000000000000000000000000008152600401610fdd9061178b565b60405180910390fd5b600060048481548110611022577f4e487b7100000000000000000000000000000000000000000000000000000000600052603260045260246000fd5b906000526020600020906005020190506002548160040154101561107b576040517f08c379a0000000000000000000000000000000000000000000000000000000008152600401611072906116eb565b60405180910390fd5b60018160030160006101000a81548160ff02191690831515021790555060008160000160009054906101000a900473ffffffffffffffffffffffffffffffffffffffff1673ffffffffffffffffffffffffffffffffffffffff168260010154836002016040516110eb9190611622565b60006040518083038185875af1925050503d8060008114611128576040519150601f19603f3d011682016040523d82523d6000602084013e61112d565b606091505b5050905080611171576040517f08c379a00000000000000000000000000000000000000000000000000000000081526004016111689061170b565b60405180910390fd5b843373ffffffffffffffffffffffffffffffffffffffff167f892cd8f5b436bd5fb7dac1f11aafb73345d892ba3e9fe09cd94d95ba84928e7360405160405180910390a35050505050565b8280546111c890611a0f565b90600052602060002090601f0160209004810192826111ea5760008555611231565b82601f1061120357805160ff1916838001178555611231565b82800160010185558215611231579182015b82811115611230578251825591602001919060010190611215565b5b50905061123e9190611242565b5090565b5b8082111561125b576000816000905550600101611243565b5090565b600061127261126d84611844565b61181f565b90508281526020810184848401111561128a57600080fd5b6112958482856119cd565b509392505050565b6000813590506112ac81611c2c565b92915050565b600082601f8301126112c357600080fd5b81356112d384826020860161125f565b91505092915050565b6000813590506112eb81611c43565b92915050565b60006020828403121561130357600080fd5b60006113118482850161129d565b91505092915050565b60008060006060848603121561132f57600080fd5b600061133d8682870161129d565b935050602061134e868287016112dc565b925050604084013567ffffffffffffffff81111561136b57600080fd5b611377868287016112b2565b9150509250925092565b60006020828403121561139357600080fd5b60006113a1848285016112dc565b91505092915050565b600080604083850312156113bd57600080fd5b60006113cb858286016112dc565b92505060206113dc8582860161129d565b9150509250929050565b60006113f283836113fe565b60208301905092915050565b61140781611985565b82525050565b61141681611985565b82525050565b60006114278261189a565b61143181856118bd565b935061143c83611875565b8060005b8381101561146d57815161145488826113e6565b975061145f836118b0565b925050600181019050611440565b5085935050505092915050565b61148381611997565b82525050565b6000611494826118a5565b61149e81856118ce565b93506114ae8185602086016119dc565b6114b781611aff565b840191505092915050565b600081546114cf81611a0f565b6114d981866118df565b945060018216600081146114f4576001811461150557611538565b60ff19831686528186019350611538565b61150e85611885565b60005b8381101561153057815481890152600182019150602081019050611511565b838801955050505b50505092915050565b600061154e6025836118ea565b915061155982611b10565b604082019050919050565b60006115716018836118ea565b915061157c82611b5f565b602082019050919050565b60006115946014836118ea565b915061159f82611b88565b602082019050919050565b60006115b76020836118ea565b91506115c282611bb1565b602082019050919050565b60006115da601a836118ea565b91506115e582611bda565b602082019050919050565b60006115fd601f836118ea565b915061160882611c03565b602082019050919050565b61161c816119c3565b82525050565b600061162e82846114c2565b915081905092915050565b600060208201905061164e600083018461140d565b92915050565b600060a082019050611669600083018861140d565b6116766020830187611613565b81810360408301526116888186611489565b9050611697606083018561147a565b6116a46080830184611613565b9695505050505050565b600060208201905081810360008301526116c8818461141c565b905092915050565b60006020820190506116e5600083018461147a565b92915050565b6000602082019050818103600083015261170481611541565b9050919050565b6000602082019050818103600083015261172481611564565b9050919050565b6000602082019050818103600083015261174481611587565b9050919050565b60006020820190508181036000830152611764816115aa565b9050919050565b60006020820190508181036000830152611784816115cd565b9050919050565b600060208201905081810360008301526117a4816115f0565b9050919050565b60006020820190506117c06000830184611613565b92915050565b60006040820190506117db6000830185611613565b81810360208301526117ed8184611489565b90509392505050565b600060408201905061180b6000830185611613565b6118186020830184611613565b9392505050565b600061182961183a565b90506118358282611a41565b919050565b6000604051905090565b600067ffffffffffffffff82111561185f5761185e611ad0565b5b61186882611aff565b9050602081019050919050565b6000819050602082019050919050565b60008190508160005260206000209050919050565b600081519050919050565b600081519050919050565b6000602082019050919050565b600082825260208201905092915050565b600082825260208201905092915050565b600081905092915050565b600082825260208201905092915050565b6000611906826119c3565b9150611911836119c3565b9250827fffffffffffffffffffffffffffffffffffffffffffffffffffffffffffffffff0382111561194657611945611a72565b5b828201905092915050565b600061195c826119c3565b9150611967836119c3565b92508282101561197a57611979611a72565b5b828203905092915050565b6000611990826119a3565b9050919050565b60008115159050919050565b600073ffffffffffffffffffffffffffffffffffffffff82169050919050565b6000819050919050565b82818337600083830152505050565b60005b838110156119fa5780820151818401526020810190506119df565b83811115611a09576000848401525b50505050565b60006002820490506001821680611a2757607f821691505b60208210811415611a3b57611a3a611aa1565b5b50919050565b611a4a82611aff565b810181811067ffffffffffffffff82111715611a6957611a68611ad0565b5b80604052505050565b7f4e487b7100000000000000000000000000000000000000000000000000000000600052601160045260246000fd5b7f4e487b7100000000000000000000000000000000000000000000000000000000600052602260045260246000fd5b7f4e487b7100000000000000000000000000000000000000000000000000000000600052604160045260246000fd5b6000601f19601f8301169050919050565b7f4e756d20636f6e6669726d6174696f6e73207265717569726564206973206e6f60008201527f74206d6574000000000000000000000000000000000000000000000000000000602082015250565b7f4661696c656420746f207472616e736665722066756e64730000000000000000600082015250565b7f596f7520617265206e6f7420616e206f776e6572000000000000000000000000600082015250565b7f5472616e73616374696f6e20697320616c726561647920636f6e6669726d6564600082015250565b7f5472616e73616374696f6e20646f6573206e6f74206578697374000000000000600082015250565b7f5472616e73616374696f6e20697320616c726561647920657865637574656400600082015250565b611c3581611985565b8114611c4057600080fd5b50565b611c4c816119c3565b8114611c5757600080fd5b5056fea264697066735822122049213f01a5133b1ec5cdd1084c33aa082123c2d2acd04c7355fda6d4eadc03fc64736f6c63430008040033",
  "immutableReferences": {},
  "source": "pragma solidity ^0.8.4;\n\ncontract MSWallet {\n    event Deposit(address indexed _sender, uint256 _amount, uint256 _balance);\n    event Submit(\n        address indexed _owner,\n        uint256 indexed _txIndex,\n        address indexed _to,\n        uint256 _value,\n        bytes data\n    );\n    event Confirm(address indexed _owner, uint256 indexed _txIndex);\n    event Revoke(address indexed _owner, uint256 indexed _txIndex);\n    event Execute(address indexed _owner, uint256 indexed _txIndex);\n\n    address[] public owners;\n    mapping(address => bool) public isOwner;\n    uint256 public numConfirmationsRequired;\n\n    struct Transaction {\n        address to;\n        uint256 value;\n        bytes data;\n        bool executed;\n        uint256 numConfirmations;\n    }\n\n    mapping(uint256 => mapping(address => bool)) public isConfirmed;\n\n    Transaction[] public transactions;\n\n    constructor(address[] memory _owners, uint256 _numConfirmationsRequired) {\n        require(_owners.length > 0, \"Owners count needs to be at least 1\");\n        require(\n            _numConfirmationsRequired > 0,\n            \"Number of confirmations required should be at least 1\"\n        );\n        require(\n            _numConfirmationsRequired <= _owners.length,\n            \"Number of confirmations required should less than owners\"\n        );\n\n        for (uint256 i = 0; i < _owners.length; i++) {\n            address owner = _owners[i];\n            require(owner != address(0), \"Owner is invalid\");\n            require(!isOwner[owner], \"Owner is not unique\");\n\n            isOwner[owner] = true;\n            owners.push(owner);\n        }\n\n        numConfirmationsRequired = _numConfirmationsRequired;\n    }\n\n    receive() external payable {\n        emit Deposit(msg.sender, msg.value, address(this).balance);\n    }\n\n    modifier onlyOwner() {\n        require(isOwner[msg.sender], \"You are not an owner\");\n        _;\n    }\n\n    modifier txExists(uint256 _txIndex) {\n        require(_txIndex < transactions.length, \"Transaction does not exist\");\n        _;\n    }\n\n    modifier notExecuted(uint256 _txIndex) {\n        require(\n            !transactions[_txIndex].executed,\n            \"Transaction is already executed\"\n        );\n        _;\n    }\n\n    modifier notConfirmed(uint256 _txIndex) {\n        require(\n            !isConfirmed[_txIndex][msg.sender],\n            \"Transaction is already confirmed\"\n        );\n        _;\n    }\n\n    function submit(\n        address _to,\n        uint256 _value,\n        bytes memory _data\n    ) public onlyOwner {\n        uint256 txIndex = transactions.length;\n\n        transactions.push(\n            Transaction({\n                to: _to,\n                value: _value,\n                data: _data,\n                executed: false,\n                numConfirmations: 0\n            })\n        );\n\n        emit Submit(msg.sender, txIndex, _to, _value, _data);\n    }\n\n    function confirm(uint256 _txIndex)\n        public\n        onlyOwner\n        txExists(_txIndex)\n        notExecuted(_txIndex)\n        notConfirmed(_txIndex)\n    {\n        isConfirmed[_txIndex][msg.sender] = true;\n        transactions[_txIndex].numConfirmations += 1;\n\n        emit Confirm(msg.sender, _txIndex);\n    }\n\n    function execute(uint256 _txIndex)\n        public\n        onlyOwner\n        txExists(_txIndex)\n        notExecuted(_txIndex)\n    {\n        Transaction storage transaction = transactions[_txIndex];\n\n        require(\n            transaction.numConfirmations >= numConfirmationsRequired,\n            \"Num confirmations required is not met\"\n        );\n\n        transaction.executed = true;\n        (bool success, ) =\n            transaction.to.call{value: transaction.value}(transaction.data);\n\n        require(success, \"Failed to transfer funds\");\n\n        emit Execute(msg.sender, _txIndex);\n    }\n\n    function revoke(uint256 _txIndex)\n        public\n        onlyOwner\n        txExists(_txIndex)\n        notExecuted(_txIndex)\n    {\n        isConfirmed[_txIndex][msg.sender] = false;\n        transactions[_txIndex].numConfirmations -= 1;\n\n        emit Revoke(msg.sender, _txIndex);\n    }\n\n    function getOwners() public view returns (address[] memory) {\n        return owners;\n    }\n\n    function getTransactionCount() public view returns (uint256) {\n        return transactions.length;\n    }\n\n    function getTransaction(uint256 _txIndex)\n        public\n        view\n        returns (\n            address to,\n            uint256 value,\n            bytes memory data,\n            bool executed,\n            uint256 numConfirmations\n        )\n    {\n        Transaction storage transaction = transactions[_txIndex];\n\n        return (\n            transaction.to,\n            transaction.value,\n            transaction.data,\n            transaction.executed,\n            transaction.numConfirmations\n        );\n    }\n}\n",
  "sourcePath": "/Users/mertozgun/dev/m2ozgun/multisigwallet/contracts/MSWallet.sol",
  "compiler": {
    "name": "solc",
    "version": "0.8.4+commit.c7e474f2.Emscripten.clang"
  },
  "schemaVersion": "3.4.0",
  "updatedAt": "2021-05-09T05:15:33.041Z",
  "networkType": "ethereum",
  "devdoc": {
    "kind": "dev",
    "methods": {},
    "version": 1
  },
  "userdoc": {
    "kind": "user",
    "methods": {},
    "version": 1
  }
}